:020000022000DC
:1060000000000120BD620200E5620200E7620200BA
:10601000E9620200EB620200ED6202000000000093
:10602000000000000000000000000000EF6202001D
:10603000F162020000000000F3620200F56202005B
:1060400095900200F7620200C5980200F762020014
:10605000F7620200F762020081940200F762020018
:10606000F7620200F7620200F7620200F7620200C4
:10607000F7620200F7620200F7620200F7620200B4
:10608000F7620200657C0200F7620200F76202001C
:10609000F7620200F7620200BDAF0200F762020081
:1060A000F7620200F7620200F7620200F762020084
:1060B000F7620200F762020000000000000000002A
:1060C000F7620200F7620200F7620200F762020064
:1060D000F7620200F7620200F762020000000000AF
:1060E00000000000000000000000000000000000B0
:1060F00000000000000000000000000000000000A0
:10610000000000000000000000000000000000008F
:10611000000000000000000000000000000000007F
:10612000000000000000000000000000000000006F
:10613000000000000000000000000000000000005F
:10614000000000000000000000000000000000004F
:10615000000000000000000000000000000000003F
:10616000000000000000000000000000000000002F
:10617000000000000000000000000000000000001F
:10618000000000000000000000000000000000000F
:1061900000000000000000000000000000000000FF
:1061A00000000000000000000000000000000000EF
:1061B00000000000000000000000000000000000DF
:1061C00000000000000000000000000000000000CF
:1061D00000000000000000000000000000000000BF
:1061E00000000000000000000000000000000000AF
:1061F000000000000000000000000000000000009F
:1062000010B5054C237833B9044B13B10448AFF3F0
:1062100000800123237010BD8819002000000000B9
:10622000D4C1020008B5034B1BB103490348AFF3C7
:10623000008008BD000000008C190020D4C10200BD
:10624000A3F5803A704700BF174B002B08BF134BD4
:106250009D46FFF7F5FF00218B460F461348144A71
:10626000121A05F073F80E4B002B00D098470D4B17
:10627000002B00D098470020002104000D000D489D
:10628000002802D00C48AFF3008005F02DF8200064
:10629000290004F0E7FA05F013F800BF0000080039
:1062A000000000000000000000000120881900200C
:1062B0001422002000000000000000000649074AE8
:1062C000074B9B1A03DD043BC858D050FBDC02F09F
:1062D00035FBFFF7B9FF000094C20200C818002088
:1062E00088190020FEE7FEE7FEE7FEE7FEE7FEE78F
:1062F000FEE7FEE7FEE7FEE7F0B595B008460024AE
:106300000E4617461D4602F0C9F91A9A0D92234609
:10631000082205A93046CDE9095408978DF82C408C
:106320000C9402F01FFADDE906219DF814308DF877
:106330001140CDE9021203F00302012A28D0022AFB
:1063400004D0304602F0AEF915B0F0BDBDF81650DD
:10635000C3F3C203C5F389158DF810300827082D43
:106360002C4628BF08243B4622460EA9304602F0A0
:10637000F9F92D1B08AB02AA21460EA8274400F00C
:10638000DDFD002DEBD1304602F08CF915B0F0BDEB
:10639000BDF814100598C1F38312C3F3C203C0F310
:1063A0009525C1F383148DF810300EA93046920064
:1063B000082302F0D7F908AB0093224602AB0EA9DE
:1063C000284600F045FD304602F06CF915B0F0BDEE
:1063D000014B01221A707047E8190020704700BF76
:1063E00000B583B0044B0093044A4023FFF784FFB9
:1063F00003B05DF804FB00BF01640200A81900208F
:1064000038B50F480F4D03780F4CEB5C4FF0000C84
:1064100084F800C0D2B253B1043003F061FF58B920
:106420000A4B1B7813B12378002BFCD038BD0C30FD
:1064300003F0A6FC0028F3D000F0F2FFF0E700BF65
:10644000C818002088200020E8190020A419002086
:1064500010B51548154A0378D35C88B0C3B1043031
:1064600003F09EFE124C0FCCEC46ACE80F0094E813
:106470000F008CE80F0006230B48009300226946AA
:1064800002F09AFD40B90B4B00221A7008B010BD03
:106490000C3003F007FCE5E700F0C2FF054B0022DB
:1064A0001A7008B010BD00BFC81800208820002056
:1064B0008CB60200A419002010B50F4C0FCC88B088
:1064C000EC46ACE80F0094E80F008CE80F000623C0
:1064D0000A4A0B480093694602F06EFD20B9094B49
:1064E00001221A7008B010BD00F09AFF054B01227E
:1064F0001A7008B010BD00BF8CB60200D163020054
:10650000C8180020A419002008B5FFF7D5FF0448DB
:10651000042100F019FC034B01225A7108BD00BF91
:106520007CC20200DC180020064B074810B5002290
:106530001A7002F067F8044610B9044802F088F9AE
:10654000204610BDBC1A0020F8C10200E4B60200CB
:1065500030B499B10D490E4D491BC90813D00D4CEB
:10656000002302E0013399420AD034F8232082420A
:10657000F8D1184655F8300030BC7047044DF9E7A3
:10658000002030BC70470846F6E700BF7CC202001E
:106590000CC2020084190020094B013903EBC00032
:1065A00003290BD8DFE801F0040208060420704735
:1065B000022070474079704700797047002070478B
:1065C0000CC202002DE9F043904CD4E901239A4219
:1065D00085B060D00023C4F81834BFF34F8FA5688E
:1065E000EAB2D31C04EB830114F82330580718D502
:1065F00066680B7803F00303012B42D0022B03D112
:106600004B88023505EB9315EAB2D4F81804D31C75
:1066100004EB830128B9AE4239D914F823305B0763
:10662000E7D404EB82026B1CDBB2D26804EB830379
:1066300002F00301DB680229CDE9012305F102061E
:106640002DD0012900F09280D4F810543DB12B6870
:1066500028469B689847EB681D68002DF7D16C4869
:106660006C4B6D49C01AC008000440F0020000F0F5
:10667000D9F8D4E90130C01A18BF012005B0BDE82F
:10668000F0830B880235C3F383131D44BCE7A66077
:1066900005B0BDE8F083002005B0BDE8F083BDF88B
:1066A00006305E48C3F389184546502D28BF502553
:1066B00005F1080165F38F13C1F30901ADF8063048
:1066C00001F0A2FF07460028BED001F0E7FF00233B
:1066D000082201A9384602F011F8F343DBB2013376
:1066E000B5EB830F4FEA83027ED9F1B25FFA82F9EC
:1066F000033104EB810138460823A5EB090501F0BD
:10670000FDFFEDB209F10803454903F0FC032A46F9
:10671000384601F0F3FF08F1030806EB9806D4F8B9
:106720001834002B6ED1D4F8105465B1EB685A7947
:1067300028463946002A61D02B681B689847EB68C9
:106740001D68002DF2D1384601F0ACFF00230DF199
:1067500003008DF8033001F0E9F8D4F8183403B9D8
:10676000A6609DF8030001F007F982E7BDF8042058
:106770002A48C2F38313062B28BF062363F389122A
:10678000023303F00F018900ADF8042001F03CFF53
:10679000074600283FF458AF01F080FF002308228D
:1067A00001A9384601F0AAFFBDF8043013F4707F48
:1067B000B5D06FF001094FF00808A9EB0509F1B257
:1067C00003314346042204EB8101384601F096FF71
:1067D000BDF804300136C3F3831309EB060293427C
:1067E00008F10408EBD89AE7F1B203312A4604EB2A
:1067F00081010823384601F081FF8CE71D68002DD8
:1068000094D1A0E7384601F04DFF32E7BC1A0020D2
:1068100034C202000CC20200CCB60200F8C1020071
:10682000C81A00202DE9F04FDFF89CA187B00023A3
:1068300006460DF10B008DF80B30019101F076F852
:10684000DAE9018303F58073A3EB0803012B00F25F
:1068500081800AF21C450AF583670AF214441AE0A3
:10686000BDF80E30C3F3891303334FEA11490BEB24
:10687000930B204601F0CAFA494600283AD0284630
:10688000CAF808B001F09EFADAE9012303F5807333
:106890009B1A012B5FD80121284601F093FA384654
:1068A00001F0A8FA204601F0A5FADAF80830DAB2C9
:1068B000D11C0AEB810C1AF8211001F004004907E1
:1068C00028D40AEB82015A1CC9680391D2B201F0A4
:1068D00003000AEB82020128D16803F1020B31D0D8
:1068E0000228BDD0204601F091FA4FF00009494638
:1068F0000028C4D12846C5E7BCF802300EEB93133C
:10690000DAB2D11C0AEB810C1AF8211001F0040054
:106910000028D6D09CF8001001F0030101290AD00C
:10692000022903F1020E02F10301E5D00AEB810C0A
:106930000028EFD1C5E7BCF800200233C2F3831270
:106940001344DDE7BDF80C30C3F383134FEA11495C
:106950009B448EE74246D3B20333023205219DF8B1
:106960000B004AF82310CAF8042001F005F80021B2
:10697000144801F01DFA80F31001F300019A03F0AE
:10698000380343F0010308F1010043EA8223C0B257
:106990005FFA88F209040AEB8000033241EA1641EB
:1069A000C1604AF822309AF8003013B907B0BDE848
:1069B000F08FFFF707FE0028F8D0FFF703FE00284E
:1069C000F7D1F3E7D81E0020BC1A00202DE9F04FC4
:1069D000DFF8ACB187B0002306460DF10B008DF84F
:1069E0000B30CDE9001200F0A1FFDBE9018303F5D4
:1069F0008073A3EB0803022B00F281800BF21C458D
:106A00000BF583670BF214441AE0BDF80E20C2F3B5
:106A1000891203324FEA114A09EB9209204601F02C
:106A2000F5F9514600283AD02846CBF8089001F0F5
:106A3000C9F9DBE9012303F580739B1A022B5FD8A8
:106A40000121284601F0BEF9384601F0D3F920466D
:106A500001F0D0F9DBF80830DAB2D11C0BEB810C75
:106A60001BF8211001F00400490728D40BEB820128
:106A70005A1CC9680391D2B201F003000BEB8202E9
:106A80000128D16803F1020931D00228BDD0204687
:106A900001F0BCF94FF0000A51460028C4D1284645
:106AA000C5E7BCF802300EEB9313DAB2D11C0BEB46
:106AB000810C1BF8211001F004000028D6D09CF8AE
:106AC000001001F0030101290AD0022903F1020E8E
:106AD00002F10301E5D00BEB810C0028EFD1C5E7F3
:106AE000BCF800200233C2F383121344DDE7BDF883
:106AF0000C20C2F383124FEA114A91448EE74246BA
:106B0000D3B20333033245219DF80B004BF8231019
:106B1000CBF8042000F030FF08F10203DBB20BEBEE
:106B20008303019ADA600021144801F041F980F3EF
:106B30001001F300009A03F0380343F0410308F119
:106B4000010043EA8223C0B25FFA88F209040BEB2A
:106B50008000033241EA1641C1604BF822309BF8B5
:106B6000003013B907B0BDE8F08FFFF72BFD002808
:106B7000F8D0FFF727FD0028F7D1F3E7D81E002053
:106B8000BC1A00202DE9F04FDFF8B8B189B000241D
:106B900006460DF113000393CDE901128DF8134061
:106BA00000F0C4FEDBF80830DBF8047003F58073F6
:106BB000DB1B032B00F281800BF21C450BF5836875
:106BC0000BF214441AE0BDF81630C3F389130333F3
:106BD0004FEA11490AEB930A204601F017F949469A
:106BE00000283AD02846CBF808A001F0EBF8DBE902
:106BF000012303F580739B1A032B5FD801212846DC
:106C000001F0E0F8404601F0F5F8204601F0F2F816
:106C1000DBF80830DAB2D11C0BEB810C1BF8211029
:106C200001F00400490728D40BEB82015A1CC96803
:106C30000591D2B201F003000BEB82020128D1686A
:106C400003F1020A31D00228BDD0204601F0DEF85F
:106C50004FF0000949460028C4D12846C5E7BCF8D2
:106C600002300EEB9313DAB2D11C0BEB810C1BF844
:106C7000210000F004000028D6D09CF8001001F09C
:106C8000030101290AD0022903F1020E02F10301D6
:106C9000E5D00BEB810C0028EFD1C5E7BCF8002054
:106CA0000233C2F383121344DDE7BDF81430C3F39B
:106CB00083134FEA11499A448EE73A46D3B203331D
:106CC000043285219DF813004BF82310CBF80420E3
:106CD00000F052FEBB1CDBB20BEB8303029ADA60BE
:106CE000FB1CDBB20BEB8303039ADA600021144830
:106CF00001F05EF880F31001F300019A03F038030D
:106D000043F08103781C43EA8223C0B2FAB209043B
:106D10000BEB8000033241EA1641C1604BF8223090
:106D20009BF8003013B909B0BDE8F08FFFF74AFCBB
:106D30000028F8D0FFF746FC0028F7D1F3E700BFA2
:106D4000D81E0020BC1A002030B4154DD5F8101400
:106D50000446002071B10B4601E01B6853B1DB68AB
:106D60001A798242F9D101300A28F3D14FF0FF306D
:106D700030BC7047E3681871D5F810344BB1DA684D
:106D8000E36812681A60D5F81034DB681C6030BC08
:106D90007047C5F81044E268136030BC704700BF0C
:106DA000BC1A002038B5084BD3F8104401251D70DB
:106DB0004CB1E3685D71236820465B689847E368DF
:106DC0001C68002CF5D138BDBC1A002030B5C38832
:106DD00085B004460D4623BB237A052B1FD0627A6B
:106DE00082B9144AA08852F8232003920021FFF7A9
:106DF000AFFB039A10490346284605B0BDE8304072
:106E000001F07EB81946A088FFF7C6FB0B4B0C4972
:106E100053F82020284601F073F8237AE1E705B003
:106E200030BD08490091084A0849284601F068F831
:106E3000D2E700BFBCB702001CB7020098B702003F
:106E400018B7020010B70200F0B60200F8B6020050
:106E50002DE9F04385B01D460C9C002394F80C905E
:106E6000237380460E46174621462846FFF7AEFF9D
:106E7000062F09D8DFE807F0042E343B444F1F00EB
:106E80004146204601F03CF82B7A052B05D06B7A61
:106E90005BB92749204601F033F8204601F024F879
:106EA00084F80C9005B0BDE8F083224A22492046C0
:106EB00001F026F8EDE77369039333690293F368F1
:106EC0000193B3680093D6E900234146204601F0C0
:106ED00017F8D9E732684146204601F011F8D3E7A8
:106EE000D6E900234146204601F00AF8CCE7B36812
:106EF0000093D6E900234146204601F001F8C3E79C
:106F0000F3680193B3680093D6E900234146204615
:106F100000F0F6FFB8E733690293F3680193B368B2
:106F20000093D6E900234146204600F0E9FFABE795
:106F300028B7020010B7020018B70200082900D9CC
:106F400070472DE9F04F1D4683B000241B7B2C7346
:106F50000E4607462946104690460193DFF8D0B00A
:106F6000DFF8D0A0FFF732FF05E03A5D013400F012
:106F7000C7FF082C09D0A64251462846F5D85946E5
:106F8000013400F0BDFF082CF5D12449DFF8A8B08A
:106F9000234CDFF8A8A0284600F0B2FF4FF000090C
:106FA00017E017F80910481C7E294FF02E02C0B2D6
:106FB00006D810F80A2012F0970F14BF0A462E22A6
:106FC0002146284609F1010900F09AFFB9F1080F9E
:106FD0000AD04E45E5D85946284609F1010900F086
:106FE0008FFFB9F1080FF4D198F80830052B02D0C3
:106FF00098F809305BB90B49284600F081FF284614
:1070000000F072FF019B2B7303B0BDE8F08F064ABE
:107010000649284600F074FFEDE700BF38B70200CC
:107020003CB7020028B7020010B7020018B70200F0
:1070300034B702002CB7020024B70200CCC0020013
:1070400038B5174B1D783DB3164A1168C0B20023FE
:107050000C4604E00133AB4204F108041CD011F8E3
:1070600033209042F6D102F001FA6378A3F10103D4
:10707000B3FA83F35B09834200D038BD0A4BD3E9EE
:1070800000231343F9D1094B094819680022BDE8D0
:107090003840490800F0E2BB00231B78FFDE00BF48
:1070A000741F0020B81F0020A01F0020781F0020A0
:1070B000801F00202DE9F04FDFF8788298F800302B
:1070C00083B0002B00F02B81DFF86C92954F964E29
:1070D00000254FF0010AD7F800B01BF8350002F088
:1070E000C5F91BF835400BEBC50361085B7816F852
:1070F00001C014F0010EA3F10103B3FA83F314BF2E
:107100004FEA1C120CF00F025B09042A00F2EA801D
:10711000DFE802F0725F33200300834240F09F807B
:10712000BEF1000F0CBFF0230F230CEA030C0CBFC1
:107130000323302343EA0C03735498F800200135ED
:107140009542C8DBD9E90023134340F0DE8003B049
:10715000BDE8F08F834200F0C580BEF1000F0CBF88
:10716000F0230F230CEA030C0CBF0423402343EA53
:107170000C03735498F80020E1E7834240F0B58097
:10718000BEF1000F0CBFF0230F230CEA030C98F89C
:1071900000200CBF0323302343EA0C037354002A5E
:1071A000D0D0D7F800C00023614603E0934201F13C
:1071B0000801C4D01CF83300A04203F10103F5D14B
:1071C0004B68002BBBD020460121984798F800203F
:1071D000B5E7834219BF00231A4620230222BEF1DD
:1071E000000F16BF1A46F0230F230CEA03031A43BD
:1071F000725498F80020A2E7834273D14FF0000345
:10720000BEF1000F8DF8073014BF0F23F0230CEAF6
:10721000030C14BF1023012343EA0C030DF10700F4
:10722000735400F083FBA4F12003C4F120022AFA76
:1072300002F20AFA03F31343D9F800209DF807007D
:107240000AFA04F42243C9F80020D9F804201343B1
:10725000C9F8043000F090FB98F800206FE7BEF109
:10726000000F14BF0F23F0230CEA030398F800C0AB
:107270007354BCF1000F12D038680023024603E0BB
:10728000634502F108020AD010F83310A14203F15D
:107290000103F5D1536813B10021204698474FF000
:1072A00000030DF107008DF8073000F03FFBA4F15B
:1072B0002003C4F120022AFA02F20AFA03F313436C
:1072C000D9F800209DF807000AFA04F422EA040223
:1072D000C9F80020D9F8042022EA0303C9F80430D1
:1072E00000F04AFB98F8002029E7BEF1000F0CBF20
:1072F000F0230F230CEA030C0CBF0123102343EAF5
:107300000C03735498F8002019E7084B08481968D3
:107310000022490803B0BDE8F04F00F09FBADFF843
:1073200018900FE7B81F0020A81F0020781F00202A
:10733000801F0020741F0020A01F0020092A3FD9B1
:10734000F0B583B0144605460E4601F02FFF88B312
:10735000204B214A1E70214B1560002120481C60E3
:10736000102203F0F3FF1F4B00200021741EC3E91D
:107370000001E4B236B31C4F05EBC404032602E05F
:10738000A5421FD01C469DF8063094F802C0207814
:107390008DF8046023F007033A4601A98DF8063002
:1073A0008DF805C001F00CFFA4F108030028E7D018
:1073B00003B0F0BD01F0A6FE0028C9D003B0F0BDB7
:1073C00007207047094A0A48002103B0BDE8F04091
:1073D00000F036BA741F0020B81F0020781F00206C
:1073E000A81F0020A01F002041700200B5700200FD
:1073F000DCB7020070B5084D2B785BB1074E002456
:107400003368012113F8340001F0CEFF2B780134EA
:10741000A342F5D8002070BD741F0020B81F0020C3
:1074200000B585B00346002101AA44F20100CDE970
:107430000111039300F004F805B05DF804FB00BFF0
:1074400010B572B6FFF7AEFCFFF7BCF80028FBD111
:10745000104B114C1149E41AE408240444F00100D3
:10746000FFF7E0F90E4BD3F8F030DB0700D500BE94
:107470000C4944F00200FFF7D5F9BFF34F8F0849DC
:10748000094BCA6802F4E0621343CB60BFF34F8F2D
:1074900000BFFDE70CC2020034C20200E0B70200E8
:1074A00000ED00E0ECB702000400FA0530B48D688E
:1074B0008468C368CA68A54272EB03032CBF01202D
:1074C000002030BC704700BF2DE9F04F2DED028B3E
:1074D00083B008EE100A00F083FB40B1954AD2E970
:1074E000003113F1807341F10001C2E9003118EE5F
:1074F000100A002100F090FB8F4D60B12B6853B152
:107500008E4B2C681B7823B11CB1237F002B40F0DD
:10751000218100232B6018EE100A012100F07CFB72
:10752000002840F0EB80864801A900F0FFFB00280E
:1075300036D0844C814F824E09E033B301A93046E6
:1075400000F026FC01A9304600F0F0FB40B30378C0
:10755000012B11D0022BF0D120464FF0000801F092
:10756000AFF930B180F81C80204601F0A9F900285D
:10757000F8D101233B70E1E72B684168994200F0A4
:10758000AF80204601F0A6F9D8E743681A7F002AA9
:10759000D4D101221A774168204601F07DF9CDE768
:1075A000684FDFF8AC81DFF88C912FE0384601F0AE
:1075B00087F904464046644ED4E902BA00F03CFB29
:1075C000D9E900133268401843F100039042726811
:1075D00073EB020203D210F1807043F10003BBEBA6
:1075E00000006AEB0303012873F1000331DBB0F5FF
:1075F000350F6AD2A2684FF496030021404600F08E
:1076000069FAE8B10D2828D000232B60384601F034
:107610005DF92B68002866D0002BC7D02B688468E2
:107620009968C268DB688C4272EB03030CD22B684A
:107630001B7F002BBAD02968384601F02DF9B5E739
:107640002B68002B47D02C6003B0BDEC028BBDE84B
:10765000F08F0021404600F0D3FA384B1B78002B06
:10766000D2D0237F002BCFD0404600F0E5FAD9F8E6
:107670000030D6E90012C018D9F8043043F10003F5
:10768000884273EB020203D210F1807043F10003D1
:10769000D4E902128842934147D3236903B923777F
:1076A000D4E9053098472369002BADD0227F002A0A
:1076B000AAD0A268D318A360E36843F10003E36093
:1076C0002146384601F0E8F89EE7404600F0B4FA5B
:1076D0001E4A02448FE718EE100A00F0C9F9B2E71B
:1076E00000232B602AE7002BAED118EE100A03B05E
:1076F000BDEC028BBDE8F04F00F0BEB91448124E4D
:1077000000F09AFA0B4B1A685B688018D6E90012F1
:1077100043F10003884273EB020203D210F1807040
:1077200043F10003C6E90003FDE62146384601F0B7
:10773000B3F869E7C01F002040200020C81F0020C8
:10774000242000200CB8020038200020FFFFB400E5
:10775000E41800201B4800F06FFA1B4B1B4A196805
:107760005B684018D2E9001243F10003884273EBD2
:10777000020203D210F1807043F10003D4E9021237
:107780008842934119D3236903B92377D4E905309B
:1077900098472269002A3FF4BCAE237F002B3FF4B8
:1077A000B8AEA3680A489B18A360E36843F10003DE
:1077B0002146E36001F070F8ABE60548214601F090
:1077C0006BF8A6E6E4180020C01F00203820002037
:1077D0000CB8020010B5134B13491C68134882B053
:1077E00008235822019400F047FA044610B12046BD
:1077F00002B010BD0E4A0F4801A900F0D5F80446AA
:107800000028F4D10B48012100F0E0F901231946CA
:10781000094A084800F034F9084B012220461A7042
:1078200002B010BD08B80200CC1F002024200020A8
:10783000C9740200E4180020FFFF7F00C81F002069
:107840004AB1A1F101010368B1FA81F14909C3E923
:107850000412002070470720704700BF037F0BB160
:107860000020704730B5044683B0A2611A480D4627
:1078700000F0E2F9194B1A685B688018184AD2E9DF
:10788000001243F10003884273EB020203D210F1AD
:10789000807043F100032818226943F10003C4E912
:1078A000020302B125610F4801A900F0FDF903466A
:1078B00048B100250B481D705C6001A900F026FA54
:1078C00020B903B030BD042003B030BD024800F041
:1078D000B7F9284603B030BDE4180020C01F0020CF
:1078E000382000202420002030B5044683B0002535
:1078F0000C48257701A900F0D7F980B10346012291
:10790000027001A907485C6000F000FA08B903B0F2
:1079100030BD054800F094F9284603B030BD04207E
:1079200003B030BD24200020E418002070B4EFF331
:10793000108472B60D4B9A68AAB9012199600C495E
:107940000C4ED1F8805035401D60C1F88060D1F8F0
:1079500084505D604FF0FF33C1F88430027004B989
:1079600062B670BC704701230370F8E74420002022
:1079700000E100E0FC06FFBD094B9A687AB170B9DE
:1079800010B4EFF3108172B6064A1C6814605C688C
:107990005460986001B962B65DF8044B7047704757
:1079A0004420002000E100E010B5294C437944F860
:1079B0002320284C04EBC3031B79002B3BD1036825
:1079C0000A88C3F8082590F904308A78002B2ADB4E
:1079D00003F16043520103F56143D2B283F80023FF
:1079E00090F90430002B09DB1B494FEA531C01229C
:1079F00003F01F0302FA03F341F82C304279174BCE
:107A000044F832001648181A04EBC201C0084FF0BF
:107A1000010C000481F804C040F003001149FEF796
:107A200001FF002010BD104903F00F03520119445B
:107A3000D2B20A76D4E70A4B08480C49C01AC008EB
:107A4000000440F00200FEF7EDFE082010BD00BF6C
:107A5000582000205020002000E100E044C2020035
:107A60000CC202003CB80200FCEC00E018B80200B6
:107A7000036801221A607047036801225A60704748
:107A800070B405684FF480348C40C5F8084305682D
:107A900001F1500CC5F848434FEA8C0C05681FFAF9
:107AA0008CFC002645F80C6083B055F80C5001950D
:107AB000019D056801F5A87122F07F4245F821205B
:107AC0000268C2F8444313B10368C3F8044303B027
:107AD00070BC70472DE9F0474FF4803622F07F47A5
:107AE00002688E40C2F848630268C2F80863026800
:107AF00002EB810C044601F15005D2F80405DCF8D4
:107B00004025CCF84005AD00ADB2121A20684FF008
:107B1000000840F8058082B04059009022F07F4272
:107B2000012A00988A46994641D02268D2F8045525
:107B3000C2F844637A1B22F07F42012A0AF5A87139
:107B400025D0236843F821702068D0F804557B1BAA
:107B5000C9F1FF12013B02F57F4223F07F439A42B5
:107B600011D343B1C0F8446323680020C3F8046311
:107B700002B0BDE8F087013740F821702068D0F8E6
:107B800004359D42EED00D2002B0BDE8F087236899
:107B9000013743F821700C4B4FF4806043F0010330
:107BA00098472068D0F804359D42DBD0EBE7064AC1
:107BB0004FF4806042F001029047226842F805804D
:107BC00052590192019AB0E750B8020002680223AC
:107BD000C2F8443311B10268C2F80433704700BFE1
:107BE0000368D3F8040100B97047002282B0C3F8DB
:107BF0000421D3F804310193019B012002B07047A6
:107C000002684FF4803303FA01F1C2F848130368A5
:107C1000C3F80813704700BF50318900036889B268
:107C2000585800B9704700225A5082B05B580193EF
:107C3000019B012002B070470368D3F80405704728
:107C400090F90430002B09DB5A09054803F01F03A3
:107C50000121403201FA03F340F82230704700BF9F
:107C600000E100E0024A034B10681B68184700BFA0
:107C7000502000205820002099B110B4B2FBF3F43A
:107C800003FB1424A4B244B9C0E9001484608281C7
:107C9000C38120465DF8044B704709205DF8044B12
:107CA00070470E20704700BF10B483B050E8013F0A
:107CB0001FFA83FCC489A4448489A44528BFACEB83
:107CC000040C0489A44502BFBFF32F8F002207E0F4
:107CD000CCEA030C40E801C4002CE7D14FF00102CC
:107CE0008DF803200193019C9DF803200C6032B1B4
:107CF000006810FA84F003B05DF8044B704702F09E
:107D0000FF03184603B05DF8044B70470A884B88A0
:107D10009A4201D00020704750E8012FC2EA024287
:107D200040E80123002BF7D10120704710B483B045
:107D300050E8023F1FFAA3FCC488A44502BFBFF36A
:107D40002F8F00220EE0C489A4448489A44528BF53
:107D5000ACEB040CC3EA0C4C40E802C4002CE7D1A5
:107D60004FF001028DF803200193019C9DF8032040
:107D70000C6032B1006800EB144003B05DF8044BB6
:107D8000704702F0FF03184603B05DF8044B7047DC
:107D90000A884B889A4201D00020704750E8022F91
:107DA000C2EA224240E80223002BF7D101207047AB
:107DB000034653E8000F0A4643E8002C9CF0000FEE
:107DC000F7D17047034653E8002F02EB010043E868
:107DD000000C9CF0000FF6D1704700BF034653E83B
:107DE000002FA2EB010043E8000C9CF0000FF6D13D
:107DF000704700BF0346012253E8001F41EA02001A
:107E000043E8000C9CF0000FF6D1704703460022B7
:107E100053E8000F00EA020143E8001C9CF0000F49
:107E2000F6D17047D0B110B4D0E90112521A0468EB
:107E3000D2B2531E2160DBB252B101680A6803F16D
:107E4000FF3C541C0C6013705FFA8CF3FF2BF4D1D1
:107E50000368002018715DF8044B70470E207047CE
:107E600030B583B0044600250DF107008DF80750AA
:107E7000FFF75CFDD4E900311A688A4210D9511E1F
:107E800019602168A3680D6812F8012C208A5B1B19
:107E9000E56800FB02550A79DBB29A4238BF0B71E4
:107EA0009DF80700FFF768FD284603B030BD00BF0E
:107EB00030B5054683B00DF1070000230C468DF860
:107EC0000730FFF733FD2A681368591C1160E96811
:107ED0002A8A641AB4FBF2F41C709DF80700FFF7BD
:107EE0004BFD03B030BD00BF826842B110B50446FF
:107EF00043690168006998470023A36010BD70477B
:107F00000EB400B582B0039921B104AB01AA01936C
:107F100000F0B6F802B05DF804EB03B0704700BFA4
:107F20002DE9F04F154683B0A942DDF830900D9A47
:107F30000F4606469A46C0F09E800B464FF0010859
:107F4000B3FBF5F39D4208F10108F9D9D04538BFDC
:107F5000D04612F00103019302D1B9F1000F67D1AD
:107F6000B268BAF1010F4FF0010406D90AF1FF3AE5
:107F7000BAF1010F05FB04F4F8D8B7FBF4F39D4206
:107F800005D805FB04F4B7FBF4F39D42F9D9DFF8FB
:107F9000ECA007E0AC42B4FBF5F31AD3B2681C4680
:107FA000B7FBF3F31AF803B0BBF10A0F04FB137726
:107FB00028D03368511CB16003F802B0D6E9013211
:107FC0009A42E7D33046FFF78FFFB4FBF5F3AC429C
:107FD000E4D2019B9BB1B9F1000F10D02024C84519
:107FE00009F1FF390BD2B3683268591CB160D4541F
:107FF000D6E901329A4214D2B9F1000FEFD103B0A1
:10800000BDE8F08F511C3368B1604FF00D019954F9
:10801000D6E901329A42CCD33046FFF765FFB26809
:10802000C7E73046FFF760FFB9F1000FD7D1E6E7A9
:1080300093071AD42024B268C84502F1010190D2F6
:108040003368B1609C54D6E901329A4209F1FF3994
:1080500003D2B9F1000FEFD183E73046FFF744FFB9
:10806000B268B9F1000FE7D17BE7BAF1000F0CBF9E
:1080700030242024DFE74FF0010867E758B80200FA
:10808000002900F05C822DE9F04FDFF870950D7843
:1080900085B0064690460C464FF00D0A0FE00A2DBB
:1080A000B36800F08E803268591CB160D554D6E9AF
:1080B00001329A4280F081802578002D69D0013408
:1080C000002D66D0252DEAD10027234614F8012B78
:1080D0002D2A6CD0302A6DD02B2A61D02A2A7FD04D
:1080E000A2F1300109294FF000050BD805EB8505F9
:1080F00002EB450513F8012FA2F130010929A5F182
:108100003005F3D92E2A1C4675D0002301E014F85F
:10811000012F02F0FB016829F9D0252A00F08681A1
:10812000583AD1B2202930D8202A2ED8DFE812F0D0
:1081300021002D002D002D002D002D002D002D00E3
:108140002D002D002D00FE0079002D002D002D00AA
:108150002D0079002D002D002D002D002D002D006B
:10816000BD002D002D001A012D0016012D002D003F
:108170002100D8F800101022081DC8F80000096876
:108180003046CDE90057FFF7CBFE01342578002DAE
:1081900095D1337B002B40F0438105B0BDE8F08FD3
:1081A000234614F8012B2D2A47F0040792D147F0FB
:1081B00001078AE747F0020787E73046FFF794FE9A
:1081C0007AE73268591CB16002F803A0D6E90123AE
:1081D0009342FFF468AF3046FFF786FEB36862E76C
:1081E000D8F80020111DC8F8001015685A782E2AFA
:1081F00003F1010489D16278A2F13003092B04F163
:1082000001044FF0000384D803EB830302EB430324
:1082100014F8012FA2F130010929A3F13003F3D999
:1082200077E7D8F80020111DC8F80010D2F800B088
:108230008BEAEB72A2EBEB72092A40F3DB81DFF8E9
:10824000C0C3012011466329ACFB02E200F101002A
:108250004FEAD202F6DC9842024638BF1A46029232
:10826000002D00F01E81BBF1000FC0F22E817A07B5
:1082700000F12B81B80740F12A81002B40F02781C3
:10828000BBF1000FC0F27D817A0700F18D8107F00C
:108290000302022A00F05D81CDE9005759460A2207
:1082A0003046FFF73DFE013470E7D8F800301A1D64
:1082B000C8F800201F68B3683268581C3021B060CD
:1082C000D154D6E90123934280F0FA80591C3268D8
:1082D000B1607821D154D6E901329A4280F0EB8026
:1082E0000F2F03D93B461B090F2BFCD84FF08055AD
:1082F00006E00F2D4FEA15137FF647AFB2681D4613
:10830000B7FBF5F319F803B0BBF10A0F05FB1377C0
:1083100077D03368511CB16003F802B0D6E901325E
:108320009A42E6D33046FFF7DFFDE2E7D8F80030A7
:108330001A1DC8F800201D78B3680A2D00F03A8194
:108340003268591CB160D554D6E901329A42FFF423
:108350001CAF3046FFF7C8FD013417E7D8F800100E
:108360000A2209E7D8F800301A1DC8F8002017F0D3
:108370000107D3F800B064D1BBF1000F03D0584619
:1083800002F0ECFF0746BD4215D9202201E0BD42B4
:1083900011D0B1683368481CB0605A54D6E9013036
:1083A000984205F1FF35F2D33046FFF79DFDBD42FF
:1083B0004FF02002EDD19BF80050002D3FF4E5AEC8
:1083C0000A2DB0680FD03368421CB2601D54D6E944
:1083D0000130984280F0B4801BF8015F002D3FF41B
:1083E000D4AE0A2DEFD13368421CB26003F800A06E
:1083F000D6E901309842E6D33046FFF775FDB06804
:10840000E1E73368511CB16003F802A0D6E90132FC
:108410009A42FFF47EAF3046FFF766FDB26878E718
:10842000304605B0BDE8F04FFFF75EBDB368316878
:10843000581CB060CA54D6E901329A4289D201343C
:10844000A4E69BF80030002B00F0D680B0685F46B1
:10845000CBF101020A2B02EB070B5ED0411CB1608D
:1084600031680B54D6E90130984248D217F8013FE1
:10847000002BEFD15D457FF688AE202702E05D45F9
:108480003FF483AEB2683368511CB1609F54D6E9A3
:1084900001329A4205F1FF35F1D33046FFF724FD52
:1084A000EDE7B80705D5002B3FF4EAAEF9073FF535
:1084B000E7AE0025E4E63046FFF716FDB2680FE7A9
:1084C0003046FFF711FDB36800E7013DD2E6F9073A
:1084D0003FF5D6AE002DECD020220299A942BFF480
:1084E000CFAEB168481CB06030684254D6E9010193
:1084F000814205F1FF356CD2002DEED1D9E730462F
:108500000292FFF7F1FC17F8013F002BB2D0029A5C
:10851000B0680A2B02EB070BA0D1411CB160316897
:1085200001F800A0D6E90110884297D33046CDE982
:108530000232FFF7D9FCDDE90232B0688EE77047FE
:108540003046FFF7D1FC1BF8015F002D7FF438AFF8
:108550001BE6002B7FF4A0AE8DB1302202998D4234
:108560007FF69AAEB168481CB06030684254D6E9D4
:108570000101814205F1FF3535D2002DEED10025F4
:108580008AE6B1683268481CB060CBF1000B2D2040
:108590005054D6E901219142FFF479AE304603935D
:1085A000FFF7A2FC039B72E6B1683268481CB0601A
:1085B0002B20EDE73268591CB16002F803A0D6E920
:1085C00001239342FFF4BCAE3046FFF78DFCB36845
:1085D000B6E630460393FFF787FC039B2022002D6D
:1085E0007FF47BAF65E730460393FFF77DFC039B89
:1085F0003022C2E701202EE69B463BE758B8020036
:10860000CDCCCCCCFFF70EBC2DE9F041058A03316F
:10861000043D4E198046B6FBF5F6FFF721FCA0B3EA
:10862000F6B24FF48073013E04468380C580C0F8E3
:1086300000802BD00346002508E06279AE4202F1AB
:10864000010262713860C0F800801FD040461F46AA
:10865000FFF706FC013503460028EED16779791E45
:1086600017D02246013399421268FBD1D2F800801C
:108670005FB12668002501E0344636682146404651
:108680000135FFF715FCAF42F6D800242046BDE8BF
:10869000F08120682146FFF70BFCF6E7012104304A
:1086A000FFF790BB2DE9F041012104460430FFF7AC
:1086B00095FB10F0FF0301D0BDE8F0816779791ECA
:1086C00016D02246013399421268FBD1D2F80080BD
:1086D000002FF1D02668002501E034463668214697
:1086E00040460135FFF7E4FBAF42F6D8BDE8F08124
:1086F00020682146BDE8F041FFF7DABB2DE9F843D9
:108700008846C788417907FB01F1043902EB030C65
:108710001E1D6145154638BFCD1AB7420446B6FB4B
:10872000F7F207FB126002D8013A2468FCD13E1A26
:10873000AE4228BF2E469DB14FF000090430AD1B5C
:10874000324608EB0901204402F0F2FDAF42B14489
:1087500024683E464FF0000028BF2E46002DEDD184
:10876000BDE8F8832DE9F8430446C788407907FB44
:1087700000F0043802EB030C1E1D6045154638BF9F
:10878000C51AB7428846B6FBF7F107FB116202D85B
:1087900001392468FCD1BE1AAE4228BF2E469DB1D5
:1087A0004FF00009111DAD1B3246214408EB0900B2
:1087B00002F0BEFDAF42B14424683E464FF00002D5
:1087C00028BF2E46002DEDD1BDE8F88341DF70476C
:1087D000064A074B10B5002414701C60BFF35F8F6E
:1087E0000449054800F042F8204610BD64200020EE
:1087F0006820002074B802005C20002000B583B01F
:1088000000230DF107008DF80730FFF78FF8F1EE28
:10881000103A23F09F03E1EE103ABFF35F8F0B4B4A
:108820004022C3F884219DF80700FFF7A5F802F065
:10883000BFFB28B920BF40BF20BF03B05DF804FBD9
:1088400003B05DF804EBFFF7C1BF00BF00E100E03B
:108850008268002393608268136182685361826832
:10886000D3608268536082681360704701600B6850
:1088700043604A68934204BF00234360704700BFCF
:10888000436843B1026891680B4443605268934265
:1088900004BF00234360704770B5446806462068F3
:1088A0000D4618B908E02468206828B1B368294645
:1088B00098470028F7D120682860256070BD00BF68
:1088C0004368186808B102681A60704743681868FE
:1088D000704700BF4368186818B908E0034600688D
:1088E00028B18142FAD10A681A60012070477047A6
:1088F0001049A1F5947205E052F83330984238BF20
:1089000061460CD2A1EB020C4FEADC7303EBEC03E3
:108910005B10914202EBC30CEED80748704702D9B6
:108920000CF10802EEE7DCF80400034B002808BF56
:1089300018467047B4BD020078BC020010B44FF076
:108940008053D3F830315A1C04BF4FF0704393F872
:10895000E03F062B08D14FF08053B34AD3F82433BD
:10896000C3F30423C2F840354FF0704393F8E02F6F
:10897000062A00F01B814FF08053D3F830315C1C85
:1089800004BF4FF0704393F8E03F062B09D14FF03E
:1089900080534FF08042D3F84432C3F34233C2F8DD
:1089A0003C354FF0704393F8E02F062A00F0E98041
:1089B0004FF08053D3F83031581C04BF4FF0704350
:1089C00093F8E03F062B08D14FF080430022C3F814
:1089D0000C21C3F81021C3F838254FF0704393F8E9
:1089E000E02F062A00F0AA804FF08052D2F83031F2
:1089F000591C20D0062BD2F8342126D08B4AD2F82D
:108A0000883043F47003C2F88830BFF34F8FBFF350
:108A10006F8F4FF01023D3F80022002AC0F222817A
:108A2000D3F80432002BC0F21D81814B814A1A60B9
:108A30005DF8044B70474FF0704292F8E01FD2F897
:108A4000E82F0629DAD1C2F30312033A032A40F2CF
:108A5000C4804FF08053784AD3F80414C2F820152C
:108A6000D3F80814C2F82415D3F80C14C2F828154A
:108A7000D3F81014C2F82C15D3F81414C2F830151A
:108A8000D3F81814C2F83415D3F81C14C2F84015E2
:108A9000D3F82014C2F84415D3F82414C2F84815AA
:108AA000D3F82814C2F84C15D3F82C14C2F850157A
:108AB000D3F83014C2F85415D3F83414C2F8601542
:108AC000D3F83814C2F86415D3F83C14C2F868150A
:108AD000D3F84014C2F86C15D3F84414D3F83031ED
:108AE000C2F870155C1C04BF4FF0704393F8E03F70
:108AF000062B83D14FF080524FF08041D2F858328C
:108B0000D2F8302103F04F03501CC1F8E43E69D085
:108B1000062A7FF473AFD1F80034DA076ED44FF031
:108B20008053D3F83431033B032B50D9434AD2F856
:108B30003C3743F48063C2F83C375FE7D3F8E83F43
:108B4000C3F30313033B032B3FF64EAF3C4AD25C07
:108B500022B14FF080420321C2F8A015394AD35CFC
:108B6000002B3FF441AF384B0524012000213F2268
:108B7000C3F81046C3F88806C3F81816C3F81426BD
:108B800032E7D3F8E83FC3F30313033B032B3FF66D
:108B90000FAF2E4AD35C002B3FF40AAF234AD2F822
:108BA000FC3023F08073C2F8FC3001E7D3F8E83FD3
:108BB000C3F30313033B032B3FF6DDAE244AD35C20
:108BC000002B3FF4D8AE234B234A5A67D3E6234AFF
:108BD000D35C002B3FF412AFA8E721498A5C002A3E
:108BE00080D036E74FF0704393F8E03F062B7FF4D8
:108BF00005AFD1F80034DB077FF500AF4FF08053AD
:108C00004FF08042D3F830316FF00101062BC2F8EB
:108C100000147FF4F3AE4FF08053D3F83431033BAC
:108C2000032B83D8D3E700BF0030014000ED00E004
:108C3000EC1800200090D00300C00040001000405D
:108C4000BCBD0200BCBD020000500040BCBD020023
:108C5000BCBD020000C007400DF0ADBAB8BD0200B7
:108C6000B4BD0200184A0123C2F80435D2F800341A
:108C7000002BFBD04FF010231521134AC3F800122C
:108C8000D2F80034002BFBD04FF0102315210E4AF0
:108C9000C3F80412D2F80034002BFBD000230A4999
:108CA000C2F80435D1F80034002BFBD0BFF34F8F4E
:108CB0000649074BCA6802F4E0621343CB60BFF376
:108CC0004F8F00BFFDE700BF00E0014000ED00E076
:108CD0000400FA054FF0A042044B1B5CD2F80405D7
:108CE000D840C04300F00100704700BFC0BD020083
:108CF000044A115C01234FF0A0428B40C2F80C35AE
:108D0000704700BFC0BD0200044A115C01234FF050
:108D1000A0428B40C2F80835704700BFC0BD0200BA
:108D20004FF0A04310B44FF480204FF400344FF4C0
:108D300000214FF48012C3F80845C3F80805C3F8B2
:108D40000815C3F808255DF8044B70474FF0A043A1
:108D500010B44FF480204FF400344FF400214FF44E
:108D60008012C3F80C45C3F80C05C3F80C15C3F802
:108D70000C255DF8044B7047074B4FF0A041185C81
:108D8000D1F804350122824022EA03001340C1F8E1
:108D90000805C1F80C357047C0BD02000D2809D088
:108DA0000E2809D00F2809D010280CBF03204FF03F
:108DB000FF30704700207047012070470220704745
:108DC000C20710B41AD54FF0A04303224FF400316C
:108DD000C3F844274FF48024C3F84827C3F84C272E
:108DE000C3F85027C3F808154FF480124FF4002140
:108DF000C3F80845C3F80815C3F8082583070AD542
:108E00004FF0A0430C22C3F83427C3F83827C3F827
:108E10003C27C3F840275DF8044B704710B568B98C
:108E20000E4CA368012262703BB1D3E900230020FD
:108E3000A2609847A368002BF7D110BD0128FCD190
:108E4000064C2369A070002BF7D0D3E90023012042
:108E5000226198472369002BF7D110BD6C200020B8
:108E600070B910B5074CA368012262703BB1D3E919
:108E700000230020A2609847A368002BF7D110BD03
:108E8000704700BF6C20002030B5012883B004D0AB
:108E9000032821D0B0B103B030BD294C00230DF11F
:108EA00007008DF80730FEF741FD23786BB3E368C8
:108EB0009DF8070001221344E360A270FEF75CFDF9
:108EC00003B030BD1F4B0122C3F88020BFF34F8F8A
:108ED000BFF36F8F03B030BD194C00F0B3F800231F
:108EE0000DF107008DF80730FEF720FDE368013B28
:108EF000E360E3681BB9144BD3F80054C5B19DF887
:108F00000700FEF739FD03B030BD10486360A36071
:108F10002361E36000F08AF802F04AF860B10A4A7F
:108F200001232370D2F80024002AC0D0A370BEE72A
:108F300000F09AF8A570E2E700F084F8EFE700BFD0
:108F40006C20002000E100E0000001401D8E0200C6
:108F500030B50A4B0A4C53F8213054F821100278EE
:108F600085B0D0E901548DF80020C26801958DF8D4
:108F7000084003926846984705B030BD8420002021
:108F80008020002030B50A4B0A4C53F8213054F8A9
:108F90002110027885B0D0E901548DF80020C26814
:108FA00001958DF8084003926846984705B030BD9A
:108FB0008420002080200020F0B5174B06784F7FDA
:108FC00043F826201446154B154A9F550546086957
:108FD00042F826008C46BCE80F0089B0EE46AEE8A9
:108FE0000F009CE80F008EE80F0004964FB1002C94
:108FF0000C4A694608BF2246281D00F0E9FF09B067
:10900000F0BD002C084A694608BF224605F10C0055
:1090100000F07AFD09B0F0BD8420002088200020F7
:1090200080200020518F0200858F0200044A1379AE
:1090300023B9012110609180184670478520704740
:109040008C200020074B1A68D20704D4C02283F872
:10905000002301221A604FF080430122C3F8182533
:10906000704700BF00E100E04FF080420221002382
:10907000C2F8081382B0C2F80431D2F80431019367
:1090800001230199D360D2F81834DB03FBD402B07A
:10909000704700BF10B54FF0804382B0D3F8002175
:1090A00062B10021164AC3F80011D3F800115079BB
:1090B00000910121009CC3F80813A8B14FF0804330
:1090C000D3F80421CAB10022C3F80421D3F8042143
:1090D000019202210A4A0198C3F80813136801207B
:1090E00002B0BDE8104018471368517198474FF01F
:1090F0008043D3F80421002AE5D102B010BD00BF9F
:109100008C20002030B5254C94F8583083B0002BCB
:1091100040D16FF02F0004F1300304F1500C001B1C
:109120004FF0FF31C21821FA02F2D20748BF19707E
:1091300001336345F6D14FF0FF304FF0FF314FF070
:10914000FF33C4E900010422002115482365C4E966
:109150000233C4E90433C4E90633C4E90833C4E97B
:109160000A3302F0F3F80F4BC02283F806234022A3
:109170001A600D4B0020C3F87C01D3F87C210192CA
:10918000019D4FF00042012184F85810C3F80423D8
:1091900003B030BD082003B030BD00BF98200020D0
:1091A000EC20002000E100E000600040034B93F859
:1091B0005800003818BF0120704700BF98200020D9
:1091C00070B5774B03EB000E9EF930C0BCF1000F79
:1091D00001DB082070BD91F802C01CF0020FCCF337
:1091E00040055DD11C6A013400F0D2805C6A013414
:1091F00000F0C4804FF00C0E4FF00A0C53F82C40D6
:10920000013459D00CF10104744547D253F824605D
:10921000013600F0AB800CF1020474453ED253F8E5
:109220002460013600F0A2800CF10306764535D2A9
:1092300053F8264001343ED00CF1040676452DD279
:1092400053F82640013436D00CF10506764525D278
:1092500053F8264001342ED00CF1060676451DD277
:1092600053F82640013426D00CF10706764515D276
:1092700053F8264001341ED00CF1080676450DD275
:1092800053F82640013416D00CF1090CF44505D2F0
:10929000DC6A013408BF4FF00B0C0DD0042070BD08
:1092A0001C68013464D05C6801346ED04FF0080E45
:1092B0004FF0020CA2E7B44643F82C201A184FFADC
:1092C0008CFE82F830E015B99C448CF848008A780E
:1092D000540715D4D50740D5820002F1A042D2F838
:1092E000004724F00204C2F800472E4DC40800F0E5
:1092F000070C2E5D012202FA0CF232432A558A78BD
:1093000012F002021CD04FEA8E0303F1804303F5F2
:10931000C0430978D3F8104524F4473424F440744A
:10932000C3F8104502020904D3F8100501F44031D6
:1093300002F4F8520A430243C3F81025002070BD1E
:10934000AEF1080E43FA8EF30C7893F850101046E5
:1093500041EA841283F8502070BD4A784FF0A0444F
:1093600000F5E075920044F82520BEE7A446A3E787
:109370001A6000228EF830209646A8E74FF0090CBC
:109380008EF830C05A62E6469EE74FF0010C93E734
:109390004FF0080C8EF830C01A62E64694E700BF22
:1093A00098200020EC20002030B42E4C04EB000C60
:1093B00082B09CF93030072B1EDD083B44FA83F362
:1093C00093F850309B09032B41D0012B0CBF4FF475
:1093D00000334FF44033800000F1A040D0F8002764
:1093E00022F44032C0F80027D0F800271343C0F819
:1093F000003702B030BC7047DAB2072AF9D89800BB
:1094000000F1804003F1400200F5C04052B29200EA
:10941000D0F8105592B202F1804202F5C04245F0F8
:109420000105C0F810550020106012680192019AE1
:109430000029DED09CF9302054F82220002AD8D010
:109440000949012202FA03F3C1F80433D1E74FF0CE
:10945000A043D3F81035C34003F0010302331B04CB
:10946000B9E700BF98200020006000404FF0A04303
:10947000D3F8103523FA00F000F00100704700BF68
:10948000F0B585B01D4A00230193D2F800110129DF
:1094900000F0E5811E46194BD3F80421012A00F0A3
:1094A000CF81164BD3F80821012A00F0B881134B65
:1094B000D3F80C21012A00F0A381104BD3F810211E
:1094C000012A00F08E810D4BD3F81421012A00F0FF
:1094D00079810A4BD3F81821012A00F06481074BE7
:1094E000D3F81C21012A0BD0044BD3F87C21012A8C
:1094F00000F0C28126BB05B0F0BD00BF0060004097
:10950000D3F804231206EFD50022C3F81C21D3F8A8
:109510001C110291D3F87C110298012946F08006B3
:109520000ED1C3F87C21D3F87C2103924FF0A043E5
:10953000039AD3F820250192C3F8202546F000466F
:10954000BE4F00240125A30003F180432E4203F502
:10955000C0434FEA45050BD0D3F8100557F8242037
:10956000D3F81015C0F30420C1F3014102B19047B4
:109570000134082CE7D1002EBDDAB04C01254FF0A4
:10958000A04694F95000471C3DD0C0F3C20304AA82
:109590001344C1B213F80C2C00F0070305FA03F3CF
:1095A0001A4200F03F002ED0830003F1A04305FAD9
:1095B00000F7D3F80027D3F800C72CF4403CC3F8D9
:1095C00000C7C2F30142D3F800C7022A0CBF4FF410
:1095D000403E4FF4003E4CEA0E0CC3F800C723187F
:1095E000C6F8207593F9303054F823305BB18909FF
:1095F000032900F06581022A00F05F81032A02D16D
:10960000022900F05D8194F95100411C3DD0C0F366
:10961000C20304AA1344C1B213F80C2C00F00703D0
:1096200005FA03F31A4200F03F002ED0830003F145
:10963000A04305FA00F7D3F80027D3F800C72CF4AD
:10964000403CC3F800C7C2F30142D3F800E7022A46
:109650000CBF4FF4403C4FF4003C4CEA0E0CC3F8F6
:1096600000C72318C6F8207593F9303054F823301A
:109670005BB18909032900F01981022A00F01381E6
:10968000032A02D1022900F0118194F95200421CF0
:109690003DD0C0F3C20304AA1344C1B213F80C2C8A
:1096A00000F0070305FA03F31A4200F03F002ED042
:1096B000830003F1A04305FA00F7D3F80027D3F89D
:1096C00000C72CF4403CC3F800C7C2F30142D3F8F2
:1096D00000E7022A0CBF4FF4403C4FF4003C4CEA38
:1096E0000E0CC3F800C72318C6F8207593F9303064
:1096F00054F823305BB18909032900F0D280022A93
:1097000000F0CC80032A02D1022900F0CA8094F92B
:109710005300431C3DD0C0F3C20304AA1344C1B29A
:1097200013F80C2C00F0070305FA03F31A4200F0BB
:109730003F002ED0830003F1A04305FA00F7D3F8D1
:109740000027D3F800C72CF4403CC3F800C7C2F38D
:109750000142D3F800E7022A0CBF4FF4403C4FF41B
:10976000003C4CEA0E0CC3F800C72318C6F820755D
:1097700093F9303054F823305BB18909032900F0A4
:109780009A80022A00F09480032A02D1022900F074
:109790009280D6F820350193C6F82035002B7FF44F
:1097A000F0AE05B0F0BDD3F8042351067FF597AEB7
:1097B0000022C3F81821D3F818310293029B46F017
:1097C00040068CE6D3F8042390067FF582AE002293
:1097D000C3F81421D3F814310293029B46F02006FB
:1097E00077E6D3F80423D4067FF56DAE0022C3F8E4
:1097F0001021D3F810310293029B46F0100662E666
:10980000D3F8042315077FF558AE0022C3F80C21C6
:10981000D3F80C310293029B46F008064DE6D3F8CC
:10982000042357077FF543AE0022C3F80821D3F87D
:1098300008310293029B46F0040638E69820002087
:10984000D3F8042392077FF52CAE0022C3F804213D
:10985000D3F804310293029B46F0020621E6D2F8C7
:10986000046316F001063FF416AEC2F80031D2F8D8
:1098700000310293029B0EE60022C3F87C21D3F84C
:109880007C2103924FF0A043039AD3F82025019244
:10989000C3F82025002E3FF470AE4FE601297FF477
:1098A00036AF984733E701297FF4EFAE9847ECE6EF
:1098B00001297FF46EAF98476BE701297FF4A3AECF
:1098C0009847A0E6014B1B68184700BFF420002012
:1098D000104B98421BD130B583B000230DF1070027
:1098E0008DF807300D46FEF721F80B4B9DF8070069
:1098F0001C793CB901221D601A71FEF73DF8204623
:1099000003B030BDFEF738F8112003B030BD0020A1
:10991000704700BF00200040F4200020034B984215
:1099200003D1034B00221A601A71704700200040D7
:10993000F42000200000000010B5714AD2F8043372
:1099400099058AB068D5D2F82431002B64D0002361
:10995000C2F82431D2F8243101934FF40171694BDC
:109960000198C2F8081393F8291009B90121516030
:10997000634902228DF81820D1F88024C1F8802490
:109980009FED5D7B9969D868CDE9081283ED067B70
:10999000D3E90012079006A89047594AD2F81C3123
:1099A000C3B1584B5869196A88426AD993F828108C
:1099B00001F0FF00002964D1C2F81C01D2F81C118B
:1099C000039103999C68186A196A205C0131196235
:1099D000C2F81C054A4AD2F84431DBB10021494B98
:1099E000C2F84411D2F8440193F82910009000986D
:1099F00009B1012111609A6962B1D8685C6A0021DD
:109A00000122CDE9070499618DF8182006A8D3E951
:109A1000001290470AB010BD394AD2F804335B07F0
:109A2000BBD5D2F80831002BB7D0364B9969002945
:109A30003ED00021C2F80811D2F80811049104990F
:109A4000D868596AD2F8182542545A6A996901327D
:109A50005A625A6A8A42A0D1DA69002A31D09A61E0
:109A60001A69D8685C6ADA60002101220894D96119
:109A7000596207905C6819688DF8182006A8A047FD
:109A80008BE71F4A0020C2F81C01D2F81C21029269
:109A9000029A5A69002A9DD0D3E901215C698DF8A8
:109AA0001800CDE907145861196806A8904791E796
:109AB000C2F80811D2F8080105900598D2F81825C7
:109AC000C7E793F8292012B90D4A012151600C4AC9
:109AD0004FF40171C2F80813D8685C6A00210122B2
:109AE00099618DF81820D3E90012CDE9070406A882
:109AF000904752E7AFF30080000000000000000034
:109B000000200040002100202DE9F041604E90F837
:109B100004802C2303FB086382B093F82A30002BC7
:109B200040F0898005460C4600685A491746FFF701
:109B3000CFFE00287BD12368591C0CD04FF0A041E8
:109B4000012202FA03F3C1F80835236803F5E07334
:109B5000032241F8232063685A1C06D003F5E07302
:109B60004FF0A042002142F823102B68A269C3F8ED
:109B70002425227D637D13432A68C2F86C35D4E91D
:109B800000122B68C3F81425C3F80C15237D012B94
:109B90005CD02C2303FB08F3F21857602269F250C3
:109BA00097B32A68237F0021C2F81C11D2F81C2128
:109BB0000092009A2A68C2F84411D2F84421019216
:109BC000019A2A683449C2F804132A6842F307311B
:109BD00000294FEA123232DB01F160415B0101F5ED
:109BE0006141DBB281F800332B6843F30732002A6E
:109BF0004FEA133109DB294C5209012301F01F01FF
:109C000003FA01F144F822102B680422C3F800255E
:109C10002C2303FB086601220023C6E9063386F8DD
:109C20002930736186F82A2002B0BDE8F081112046
:109C300002B0BDE8F081082002B0BDE8F08118490B
:109C400002F00F025B01DBB28B54CDE7A368591C15
:109C500006D003F5E0734FF0A042002142F8231034
:109C6000E3685A1C0DD04FF0A041012202FA03F321
:109C7000C1F80835E36803F5E073032241F82320B7
:109C8000E3682A68A168C2F80835C2F8101580E7B1
:109C900000210020399902008000020000E100E06C
:109CA00014ED00E0F8B503680679324C0022C3F8E1
:109CB00000252C2303FB06435B68C3B103682E4ACF
:109CC000C3F80823036843F30732002A4FEA13312D
:109CD0000EDB5209294D2032012301F01F0103FA46
:109CE00001F145F82210BFF34F8FBFF36F8F036868
:109CF000D3F80CC5D3F81475D3F80815D3F810555C
:109D00004FF0FF32C3F81425C3F80C2503689445BF
:109D1000C3F80825C3F8102506D00CF5E07C4FF0F9
:109D2000A043022243F82C207B1C06D007F5E077E5
:109D30004FF0A043022243F827206A1C06D005F505
:109D4000E0754FF0A043022243F825204B1C06D0BB
:109D50004FF0A04301F5E071022243F82120006892
:109D6000FFF7DCFD2C2303FB0644002384F82A3094
:109D70006360F8BD002100208402020000E100E0E1
:109D80002DE9F041334C90F804E02C2303FB0E4303
:109D90008446586984B000284ED15A61996018628F
:109DA00083F82800DCF80020C2F81C01D2F81C213E
:109DB0000292029ADCF8002001219160DCF8002078
:109DC0009D68C2F81C01D2F81C1101910199196A11
:109DD0006E5C196A01311962C2F81C655A6812B1C9
:109DE00004B0BDE8F0815E691A6ADCF800109642A2
:109DF0001BD9074602E093F828200ABBD1F81C21A2
:109E0000002AF8D0C1F81C71D1F81C210392039AE2
:109E10001A6A15F802801A6A01321A62C1F81C85A2
:109E20001A6A9642EAD8DCF80010D1F81C31002BEF
:109E3000FBD00123CB6004E0112004B0BDE8F08129
:109E40000F202C2303FB0E440023636104B0BDE804
:109E5000F08100BF0021002010B55B4BD3F8242116
:109E60008AB0002A58D00022C3F82421D3F8241144
:109E7000049102228DF818200499544AD3F88014D2
:109E8000C3F880149FED4E7B0991D3F83C45D06810
:109E900082ED067BCDE90704D2E9001306A89847B6
:109EA000494BD3F8442152B10021484AC3F8441128
:109EB000D3F84401916903900398002961D1424B82
:109EC000D3F8202162B10020C3F82001D3F820216B
:109ED000029201213D4A029CD9605169002943D177
:109EE000394BD3F85821AAB10020C3F85801D3F850
:109EF0005811364A01910199516959B1D3F84C452D
:109F00008DF81800D2E901315061CDE9071406A897
:109F1000116898470AB010BDD3F810110029BFD0BE
:109F2000C3F81021D3F81011284C05910599A169A7
:109F3000D3F83C058842B3D1E169002933D0C4E9A4
:109F40000612D3F8002222F02002C3F80022E268B1
:109F50000792012122698DF8181008906368216822
:109F6000E26006A898479BE7D3F84C458DF81800A7
:109F7000D2E901315061CDE9071406A8116898476C
:109F8000AEE79FED0F7BD3F83C45D0684FF0010C56
:109F9000CDE9070482ED067BD2E900138DF818C0E5
:109FA00006A898478BE7E268A1610123CDE9072065
:109FB0008DF8183006A8D4E90013984770E700BF61
:109FC00000000000000000000020004030210020C0
:109FD0002DE9F04307796D4E07EBC70306EB8303CA
:109FE00087B093F82030002B40F0A38004460D4644
:109FF000006867499046FFF76BFC002840F09580A9
:10A000002B68591C4FEAC7090CD04FF0A041012220
:10A0100002FA03F3C1F808352B6803F5E073032255
:10A0200041F823206B685A1C06D003F5E0734FF00B
:10A03000A042002142F823102368AA69C3F824250E
:10A040002B7D6A7D1A432368C3F86C25D5E900315E
:10A050002268C2F80C35C2F814152B7D012B73D081
:10A0600009EB070206EB8203C3F804802B6946F86C
:10A070002230B8F1000F47D021682B7F0022C1F8B1
:10A080001021D1F81011019101992168C1F8202106
:10A09000D1F82011029102992168C1F82421D1F848
:10A0A0002411039103992168C1F84421D1F8441186
:10A0B000049104992168C1F85821D1F858210592DA
:10A0C000059A22683349C2F80413226842F3073123
:10A0D00000294FEA123230DB01F160415B0101F5EA
:10A0E0006141DBB281F80033226842F30733002B71
:10A0F0004FEA123109DB284D5B09012201F01F01F3
:10A1000002FA01F145F8231022684F4406EB870656
:10A110000121002386F820100821C2F80015C6E9A5
:10A120000633736107B0BDE8F083112007B0BDE8C6
:10A13000F083082007B0BDE8F083184902F00F0251
:10A140005B01DBB28B54CFE7AB68591C06D003F53B
:10A15000E0734FF0A042002142F82310EB685A1C34
:10A160000DD04FF0A041012202FA03F3C1F80835E7
:10A17000EB6803F5E073032241F82320EB682268C3
:10A18000A968C2F80835C2F8101569E73021002027
:10A19000599E02001003420000E100E014ED00E0CF
:10A1A0002DE9F04105794B4C05EBC50304EB830326
:10A1B00001465B68006882B0EE00C3B1464BC0F850
:10A1C00008330B6843F30732002A4FEA13330EDBE0
:10A1D0005209DFF808C12032012703F01F0307FAF4
:10A1E00003F34CF82230BFF34F8FBFF36F8F731917
:10A1F00004EB83039A69D0F8003223F02003C0F8FF
:10A20000003242B10023C0F84431D0F84431009309
:10A21000009B012343600023C0F85831D0F8583127
:10A220000193019B7319012204EB8303C2609A69B5
:10A23000D0F85831002BFBD01AB1D0F84431002BA4
:10A24000F6D00023C0F800350B684FF0FF32D3F88A
:10A250000C85D3F814E5D3F80875D3F810C5C3F806
:10A260000C25C3F814250B689045C3F80825C3F8DE
:10A27000102506D008F5E0784FF0A043022243F8FD
:10A280002820BEF1FF3F06D00EF5E07E4FF0A04340
:10A29000022243F82E20BCF1FF3F06D00CF5E07CF3
:10A2A0004FF0A043022243F82C207B1C06D007F578
:10A2B000E0774FF0A043022243F82720FFF72EFB60
:10A2C000354404EB8504002384F82030636002B039
:10A2D000BDE8F081302100201003420000E100E0E1
:10A2E00001F0604CBCF1005F30D170B590F804E033
:10A2F000264C0EEBCE0C04EB8C0C0346DCF8140061
:10A3000082B04FEACE0500283BD1CCF81420CCF81F
:10A3100008101A68C2F82001D2F820210192019A8F
:10A320001A68C2F85801D2F858210092009A1A68A7
:10A33000DCF81460C2F84415C2F848651A680121B7
:10A340009160DCF804201AB102B070BD1020704793
:10A350001A6800E0C0B9D2F82011D2F858010029DB
:10A36000F8D088B90121D1601B68D3F85821002AA0
:10A37000FBD005EB0E0304EB830300225A6102B00D
:10A3800070BD112002B070BD0F20F2E73021002017
:10A390000220FEF7F1BC00BF2DE9F04706460D464E
:10A3A000FEF7FCFC032805D8012D04461AD0022D27
:10A3B00027D00DB1BDE8F0871B48FDF795FA1B4B80
:10A3C0001B4A04EB44010B44125D9D78AA42F1D173
:10A3D000002DEFD0174B1B68002BEBD02846BDE8B3
:10A3E000F0471847114F00EB4003FA18FD5C537813
:10A3F0004FEA40085BB9A04447440D4BBA781A5560
:10A40000E6E70A4B00EB40041C446578E0E7DFF820
:10A41000289005484A464FF48041FDF71FFA00286E
:10A42000E9D189F80060E6E778210020B821002012
:10A43000D4210020CC2100205421002010B5007828
:10A44000FEF7ACFC03280BD8064B00EB4000184489
:10A45000407828B1044B1B6813B1BDE81040184781
:10A4600010BD00BFB8210020CC21002038B5BA4D66
:10A470002B7804466BB1B94B1B7800202870002B59
:10A480004DD0FEF741FC0120FEF73EFC0320FEF715
:10A490003BFC172C00F25E81DFE814F0EB00630058
:10A4A00063009F00AC00B900CB009700500044004F
:10A4B000500044007A001800180018001800180016
:10A4C000D9001801810000015C005C00A448FDF780
:10A4D0000BFAD4F11104054600F02681002840F063
:10A4E0002381012C14D0C82303FB04F429464FF424
:10A4F00000434FF47A70C4FB03014FF4FA62002367
:10A5000000F036FF2A4601469548FDF7A7F90546B3
:10A510000220FEF7EDFB914B01221A701FE0FEF7BF
:10A52000FFFBB6E701202870FEF726FCBDE83840A7
:10A530008C4800224FF40051FDF790B9012028709B
:10A54000FEF71AFCBDE838408648002240F26661FA
:10A55000FDF784B9FEF7FAFB834B00251C702846F3
:10A5600038BD0020FEF7B6FB002840F0C380FEF7A0
:10A57000BFFB40F6CD4141F69A13022C18BF194695
:10A58000794B1C70BDE8384076480022FDF766B96B
:10A59000FEF7DCFB744B0C221A700025DFE76F4BD3
:10A5A0001B78002B00F0D3800020FEF7ADFB0120CC
:10A5B000FEF7AAFB0320FEF7A7FB0120FEF798FB9E
:10A5C000694B14221A700025C9E70020FEF790FBA2
:10A5D000654B07221A700025C1E70020FEF77AFBC1
:10A5E000002840F09B80FEF783FB40F6CD415E4B98
:10A5F0000324C6E70020FEF76DFB002840F08880AA
:10A60000FEF776FB41F69A11574B0424B9E7002078
:10A61000FEF760FB002877D1FEF76AFB524B5148EA
:10A6200005241C70BDE83840002240F6CD41FDF7FE
:10A6300015B90020FEF7A0FB4B4B4A4806241C70BE
:10A64000BDE83840002240F26661FDF707B9434B90
:10A650001B78002B78D00020FEF756FB0120FEF778
:10A6600053FB0320FEF750FB3F4B12221A700025CC
:10A6700075E73A4B1B78002B60D00020FEF744FBB7
:10A680000120FEF741FB0320FEF73EFB3548FDF7B6
:10A690002BF9354B002205461A7060E72F4B1B78CB
:10A6A000002B48D00020FEF72FFB0120FEF72CFBEB
:10A6B0000320FEF729FB0020FEF71AFB0120FEF71E
:10A6C00017FB294B15221A70002548E7234B1B78EE
:10A6D000BBB30020FEF718FB0120FEF715FB03209B
:10A6E000FEF712FB0020FEF703FB1F4B13221A702C
:10A6F000002534E70020FEF707FB022C47F2333138
:10A7000018BF4FF480313BE70020FEF7FDFA85E7E4
:10A710000020FEF7F9FA4FF4803175E70020FEF7CC
:10A72000F3FA43F2333162E70220FEF7EDFA0B4B06
:10A7300000221A7013E7FEF7F3FABCE7FEF7F0FA0F
:10A74000A4E7FEF7EDFACDE7FEF7EAFA8CE7FEF7AD
:10A75000E7FA32E7002502E7C82100205521002052
:10A760005821002098210020D0210020044B1B6894
:10A77000DB0700D47047034B1878FFF777BE00BFA4
:10A78000C4210020D0210020044B1B6813F00103DA
:10A7900001D118467047FFF769BE00BFC4210020F1
:10A7A00038B5244B244A196081070446106004D44C
:10A7B00010F001052CD1284638BD204B20480E2131
:10A7C0000F221970DA701021112299715A72042126
:10A7D00040F23332FCF7B2FD054630B1E207EAD56C
:10A7E0000120FEF7EDFA284638BDFCF703FE0546CA
:10A7F0000028F3D10146134A1348FDF721F8E30777
:10A800000546D8D50120FEF7DBFA002DD3D102E0B2
:10A810000120FEF7D5FA0D4A0D480021FDF710F88A
:10A8200005460028C7D1BDE838400A4A0A48012138
:10A83000FDF706B8CC210020C4210020B82100205B
:10A84000F0BD02003DA4020014BE02006DA702008C
:10A8500018BE020091A3020010BE020072DF704712
:10A8600073DF704700B54FF4804193B00020FBF7D1
:10A870005BFE00286BD1FBF747FEFCF7ABFF00281F
:10A8800040F0838000210120FFF78AFF002879D162
:10A89000FDF79EFF002872D100F0FCFA00286BD172
:10A8A000002303A90120039300F0D4FB002860D10A
:10A8B00003A800F08BFC002858D1354B354C02938F
:10A8C000002559233C222946ADF8003003A8172360
:10A8D000ADF8043000F03AFD042318222946204642
:10A8E0008DF80F308DF80C50CDF830D000F02EFDE3
:10A8F000294A65600523237052F8041B2575A0239F
:10A9000003A8A360A58100F0CBF860BB214A2249CF
:10A910002248FFF7A3FF18BB214B22482249C01A47
:10A92000C008000440F00300FBF77CFF1B4B012133
:10A930001878FFF795FF80B90220FFF725FF48B987
:10A94000FBF740FE0028FBD1FDF758FFF8E7FCF7C6
:10A9500067FD90E7FCF764FDF2E7FCF761FDEBE7CC
:10A96000FCF75EFDD8E7FCF75BFDCFE7FCF758FD91
:10A97000A3E7FCF755FD9BE7FCF752FD90E7FCF7DA
:10A980004FFD89E7FCF74CFD82E7FCF749FD79E7CD
:10A9900004190020D8210020F01800200019002000
:10A9A0000CC2020034C202001CBE02006DDF704700
:10A9B00079DF70477DDF704764DF70472DE9F04F26
:10A9C00085B099460E9E0388BDF83CA000911746BD
:10A9D00032880192002B53D04FF00008C346454601
:10A9E000804605E0B8F800200BF1010B5A4529DD3F
:10A9F000D8F8041051F82B00039000220DF10B0140
:10AA000003A8FFF7D9FF044630BB9DF80B20BA42DC
:10AA1000E8D12DB33288D119514536DC4A440DF1C5
:10AA20000B0103A80125FFF7C7FF002832D13188A9
:10AA30009DF80B200A443280B8F800200BF1010B7E
:10AA40005A45D5DCE5B13388019A013B9B1A9BB28C
:10AA5000FF2B1AD809F80230204605B0BDE8F08F68
:10AA60003288511C3A440232524589B20DDC009BB7
:10AA7000318009F801303288013292B23280CDE75C
:10AA80000024204605B0BDE8F08F0C24204605B018
:10AA9000BDE8F08F0446204605B0BDE8F08F00BF4A
:10AAA0002DE9F04700231788138090F82D3086B0E9
:10AAB000144606460D46002B40F0FE80B278002A70
:10AAC00040F0F380F178A1B1DA1CBA4200F2F080D4
:10AAD0000222EA542388012213449BB22380EA54C1
:10AAE000238813449BB22380E954238813449BB2E8
:10AAF00023807268AAB1D91CB94200F2D980022120
:10AB000092F90020E954238801339BB20A21238063
:10AB1000E954238801339BB22380EA54238801330C
:10AB200023803389002B40F0F180338A002B40F0E2
:10AB30002581338B002B40F03B81336A002B42D0C0
:10AB40002088821DBA4200F2B3801A88052A40F29A
:10AB50008A816FF4486802EB080189B24FF27D3CAC
:10AB6000614540F280815988052940F27C816FF46B
:10AB7000486E8E441FFA8EFEE64540F274814FF611
:10AB8000FF7C624502D08A4200F26D8105222A5480
:10AB90002288013292B212212280A95422880132E5
:10ABA00092B222801988A9542A44090A5170228835
:10ABB000023292B222805B88AB542A441B0A537043
:10ABC000238802332380736A002B2FD09988B4F82E
:10ABD00000C0881C0CF102020244BA4268D8FE2868
:10ABE00066D8033105F80C102288013292B2FF2199
:10ABF0002280A9542288013292B222801988A95455
:10AC00002A44090A51702088023080B220809A8834
:10AC100062B199680393002900F02581284400F06F
:10AC200087FB039B9A8823881344238096F82C3053
:10AC3000002B40F0D680307800283AD03388012BA2
:10AC400000F0118123889A1CBA4231D8012804D11E
:10AC50007178023119448F422AD3023FFF1ABFB2E2
:10AC6000A81804A9ADF81070FFF7A4FE08BB33784C
:10AC7000022B00F000817178BDF810209142C0F0E5
:10AC8000F6809742C0F0F38017460922FE2F0FD8B6
:10AC90002388791CE954238801339BB22380EA542A
:10ACA000238801331F44278003E00433BB4248D983
:10ACB0000C2006B0BDE8F087082FF9D904A8FFF7EB
:10ACC00075FE0028F5D123880822EA542388013331
:10ACD0009BB21B222380EA542088013080B220805E
:10ACE000062228440DF1110100F022FB23889DF873
:10ACF000102006339BB212F0FE0218BF01222380FF
:10AD0000EA54238801339BB22380D7E606F1080872
:10AD10000222CDE900472B4611464046FFF74EFE82
:10AD20000028C6D1CDE9004740462B461022062117
:10AD3000FFF744FE0028BCD1338A002B3FF4F9AE64
:10AD40001CE004A8FFF734FE0028B2D123880322B8
:10AD5000EA54238801339BB219222380EA542388C2
:10AD6000BDF8102001339BB22380EA542B44120A11
:10AD70005A70238802339BB22380A3E606F11008A1
:10AD8000CDE900472B46022203214046FFF716FE7D
:10AD900000288ED1CDE9004740462B4610220721DE
:10ADA000FFF70CFE002884D1338B002B3FF4C5AE97
:10ADB00006F11808CDE900472B460222142140462F
:10ADC000FFF7FCFD00287FF474AFCDE90047404653
:10ADD0002B4610221521FFF7F1FD00283FF4ADAE00
:10ADE00067E7B16A00293ED04FF000094B464FF0AB
:10ADF000160A2BE02388E854238801339BB2238072
:10AE000005F803A0238801339BB2238031F8222068
:10AE1000EA542B44120A5A702088023080B22080F3
:10AE2000B8F8042028444AB1D8F80810D9B100F085
:10AE30007FFAB8F8042023881344238096F82C2046
:10AE40005FFA89F39A427FF6F6AEB16A03EB4302EA
:10AE500001EB820809F10109B8F80430D81C02336B
:10AE6000FE2BC7D924E7072006B0BDE8F087012BE9
:10AE700008D008220AE7BDF810309F42F9D31F46D8
:10AE8000092203E78F42F4D30F460822FEE600BFF3
:10AE900010DF704770B53D4D2B7884B0002B67D123
:10AEA0003B4E3C49012302A83370FDF7DFFC039BB6
:10AEB00023B90FE0FDF7E4FC039B5BB1D3E900315C
:10AEC00000209847034602A8002BF3D11C462046D9
:10AED00004B070BD304902A8FDF7C8FC039B4BB11C
:10AEE000D3E900310020984702A8FDF7C9FC039B75
:10AEF000002BF5D1294B00221B68019302A88DF885
:10AF00000820FCF713FD264901A8FFF7C1FFB0FA9E
:10AF100080F304465B099DF808002B70FCF72CFDBC
:10AF2000002CD4D11F4B20491C70347091F816238B
:10AF3000EC2352091341DB071ED51C4B9A6802B360
:10AF40001A6842F480021A60134902A8FDF78EFCC9
:10AF5000039B002BBBD0D3E900310120984702A806
:10AF6000FDF78EFC039B002BF5D1204604B070BD8D
:10AF70000824204604B070BD42F20200FCF750FAEB
:10AF8000E2E74FF480030B60DEE700BF10220020F1
:10AF90000F22002040BE020058BE02003CBE02004C
:10AFA000417402001122002000E100E04420002052
:10AFB000014B1878704700BF1022002000B583B005
:10AFC00008496846FDF752FC019B43B1D3E90020D4
:10AFD00090476846FDF754FC019B002BF6D103B067
:10AFE0005DF804FB4CBE020060DF704769DF70470C
:10AFF00061DF7047154B1B7833B330B5144D91B0FA
:10B0000034240DF1020103A8ADF80240FFF7F0FF70
:10B0100088B9294601A8FDF729FC029B002BF0D036
:10B02000D3E9003103A8984701A8FDF729FC029B4A
:10B03000002BF5D1E5E7052801D111B030BD11B0E5
:10B04000BDE83040FCF7ECB9704700BF1222002089
:10B05000A8C00200002900F0A58030B5534B0B605A
:10B0600085B005460C460C22002101A800F06EF9BF
:10B07000012106238DF8061022688DF8045001A9DD
:10B080002020ADF80830FFF7B1FF002841D10C2295
:10B09000002101A800F05AF900232268ADF805301C
:10B0A00001A940208DF80730FFF7A0FF00286BD1E1
:10B0B0000C22002101A800F049F9002322688DF834
:10B0C000043001A90120FFF791FF00284ED10C2286
:10B0D000002101A800F03AF9F8232268019301A9A0
:10B0E000A120FFF783FF98BB0C22002101A800F0EC
:10B0F0002DF99DF8043022686FF3000301A9A02008
:10B100008DF80430FFF772FF034680B9184605B08A
:10B1100030BDFDF7EDFB264B264902462648181A9E
:10B12000C008000440F00100FBF750FCAFE7FDF75A
:10B13000DFFB1F4B214902461F481B1ADB081B047B
:10B1400043F00100FBF742FC0023184605B030BD78
:10B15000FDF7CEFB164B1A4902461748181AC008CD
:10B16000000440F00100FBF731FCBDE7FDF7C0FB38
:10B170000F4B144902461048181AC008000440F04A
:10B180000100FBF723FCA2E7FDF7B2FB084B0E49D9
:10B1900002460948181AC008000440F00100FBF7F5
:10B1A00015FC85E70E231846704700BFC81800201D
:10B1B0005CC2020064BE02000CC2020098BF020022
:10B1C00044BF0200F8BE0200ACBE020070B50446E7
:10B1D00082B00668FFF708FF2368B342054606D829
:10B1E0002DBB1B4B012228461A7002B070BD194BB3
:10B1F00019481A49C01AC008000440F00200019022
:10B20000FBF710FB2368164901983246FBF7BAFC9E
:10B210004FF080532268D3F80C31124901989B02F9
:10B2200003F100539A1AFBF7D1FB002DD9D0284621
:10B23000FDF75EFB084B0C49024606481B1ADB086B
:10B240001B0443F00100FBF7C1FB284602B070BDB0
:10B25000122200200CC202005CC20200ECBF0200FD
:10B260001CC0020050C002007CC002004BDF7047CF
:10B2700010B5124C84B001A8FFF7F8FFA8B9214619
:10B2800002A8FDF7F3FA039B002BF4D0D3E90031B9
:10B290000198984702A8FDF7F3FA039B002BF5D11C
:10B2A00001A8FFF7E3FF0028E9D0052801D104B089
:10B2B00010BD04B0BDE81040FCF7B2B8C0C0020039
:10B2C00008B5074B044613B10021AFF30080054BCE
:10B2D0001868836A03B19847204600F047F800BF1A
:10B2E00000000000D0C1020070B50D4D0D4C641B74
:10B2F000A4100026A64209D10B4D0C4C00F0BAF95F
:10B30000641BA4100026A64205D170BD55F8043B6D
:10B3100098470136EEE755F8043B98470136F2E7C7
:10B320007C1900207C1900207C1900208019002045
:10B330000A44914200F1FF3300D1704710B511F873
:10B34000014B03F8014F9142F9D110BD024403466D
:10B35000934200D1704703F8011BF9E7034613F845
:10B36000012B002AFBD1181A01387047FEE700BFF5
:10B3700053B94AB9002908BF00281CBF4FF0FF315C
:10B380004FF0FF3000F074B9ADF1080C6DE904CE58
:10B3900000F006F8DDF804E0DDE9022304B07047B0
:10B3A0002DE9F047089D04468E46002B4DD18A4278
:10B3B000944669D9B2FA82F252B101FA02F3C2F1AB
:10B3C000200120FA01F10CFA02FC41EA030E94403C
:10B3D0004FEA1C48210CBEFBF8F61FFA8CF708FB5D
:10B3E00016E341EA034306FB07F199420AD91CEB35
:10B3F000030306F1FF3080F01F81994240F21C8167
:10B40000023E63445B1AA4B2B3FBF8F008FB1033AE
:10B4100044EA034400FB07F7A7420AD91CEB0404E3
:10B4200000F1FF3380F00A81A74240F207816444B3
:10B43000023840EA0640E41B00261DB1D440002338
:10B44000C5E900433146BDE8F0878B4209D9002D9C
:10B4500000F0EF800026C5E9000130463146BDE826
:10B46000F087B3FA83F6002E4AD18B4202D3824290
:10B4700000F2F980841A61EB030301209E46002D3F
:10B48000E0D0C5E9004EDDE702B9FFDEB2FA82F294
:10B49000002A40F09280A1EB0C014FEA1C471FFAF2
:10B4A0008CFE0126200CB1FBF7F307FB131140EAD9
:10B4B00001410EFB03F0884208D91CEB010103F1A6
:10B4C000FF3802D2884200F2CB804346091AA4B268
:10B4D000B1FBF7F007FB101144EA01440EFB00FE3C
:10B4E000A64508D91CEB040400F1FF3102D2A645A1
:10B4F00000F2BB800846A4EB0E0440EA03409CE740
:10B50000C6F12007B34022FA07FC4CEA030C20FAEC
:10B5100007F401FA06F31C43F9404FEA1C4900FA0C
:10B5200006F3B1FBF9F8200C1FFA8CFE09FB181189
:10B5300040EA014108FB0EF0884202FA06F20BD9FC
:10B540001CEB010108F1FF3A80F08880884240F24C
:10B550008580A8F102086144091AA4B2B1FBF9F090
:10B5600009FB101144EA014100FB0EFE8E4508D98B
:10B570001CEB010100F1FF346CD28E456AD9023810
:10B58000614440EA0840A0FB0294A1EB0E01A142F5
:10B59000C846A64656D353D05DB1B3EB080261EB63
:10B5A0000E0101FA07F722FA06F3F1401F43C5E93D
:10B5B000007100263146BDE8F087C2F12003D84073
:10B5C0000CFA02FC21FA03F3914001434FEA1C47B5
:10B5D0001FFA8CFEB3FBF7F007FB10360B0C43EAA7
:10B5E000064300FB0EF69E4204FA02F408D91CEB57
:10B5F000030300F1FF382FD29E422DD90238634455
:10B600009B1B89B2B3FBF7F607FB163341EA0341F4
:10B6100006FB0EF38B4208D91CEB010106F1FF3843
:10B6200016D28B4214D9023E6144C91A46EA00463A
:10B6300038E72E46284605E70646E3E61846F8E6CC
:10B640004B45A9D2B9EB020864EB0C0E0138A3E715
:10B650004646EAE7204694E74046D1E7D0467BE7F6
:10B66000023B614432E7304609E76444023842E76E
:10B67000704700BFF8B500BFF8BC08BC9E467047D5
:10B68000F8B500BFF8BC08BC9E467047FFFFFFFF3F
:10B69000FFFFFFFFFFFFFFFFFFFFFFFF00000000B6
:10B6A000000000000000D60106010000E163020076
:10B6B00051640200DD630200756172745F6C6F6734
:10B6C0005F6261636B656E64000000004261636BE2
:10B6D000656E647320666C757368656400000000B5
:10B6E00061707000DC1E00207F0000005C1F0020E5
:10B6F0001B5B313B33316D0025734C6F67732064E6
:10B70000726F70706564202825642925730D0A0006
:10B710001B5B306D00000000257300003C25733E6C
:10B720002025733A200000000D0A00002025303249
:10B7300078000000202020007C000000256300002D
:10B740001B5B313B33306D001B5B313B33326D0093
:10B750001B5B313B33336D001B5B313B33346D007E
:10B760001B5B313B33356D001B5B313B33366D006A
:10B770001B5B313B33376D006572726F72000000E6
:10B780007761726E696E6700696E666F0000000017
:10B79000646562756700000010B7020040B70200E0
:10B7A000F0B6020048B7020050B7020058B70200D6
:10B7B00060B7020068B7020070B702000000000026
:10B7C00078B7020080B7020088B7020090B7020085
:10B7D0006170705F627574746F6E0000801F00206E
:10B7E000466174616C206572726F72005379737474
:10B7F000656D207265736574000000006170705F94
:10B8000074696D6572000000010006000000000010
:10B81000BC1F0020AD74020052544320696E737443
:10B82000616E636520616C726561647920696E691F
:10B830007469616C697A65642E0000005254433A61
:10B8400020696E697469616C697A65642E00000014
:10B850000338FDD870470000303132333435363785
:10B8600038394142434445467077725F6D676D7465
:10B8700000000000E0C10200E0C10200040000007E
:10B88000736F72746C697374000000004E52465FEF
:10B8900053554343455353004E52465F4552524F12
:10B8A000525F5356435F48414E444C45525F4D49A9
:10B8B0005353494E470000004E52465F4552524F87
:10B8C000525F534F46544445564943455F4E4F548B
:10B8D0005F454E41424C4544000000004E52465FD9
:10B8E0004552524F525F494E5445524E414C000012
:10B8F0004E52465F4552524F525F4E4F5F4D454D3F
:10B90000000000004E52465F4552524F525F4E4F6C
:10B91000545F464F554E44004E52465F4552524F7B
:10B92000525F4E4F545F535550504F525445440050
:10B930004E52465F4552524F525F494E56414C4916
:10B94000445F504152414D004E52465F4552524F66
:10B95000525F494E56414C49445F5354415445004F
:10B960004E52465F4552524F525F494E56414C49E6
:10B97000445F4C454E475448000000004E52465F1D
:10B980004552524F525F494E56414C49445F464CD6
:10B99000414753004E52465F4552524F525F494E07
:10B9A00056414C49445F4441544100004E52465F69
:10B9B0004552524F525F444154415F53495A4500EA
:10B9C0004E52465F4552524F525F54494D454F5576
:10B9D000540000004E52465F4552524F525F4E5542
:10B9E0004C4C00004E52465F4552524F525F464FFC
:10B9F0005242494444454E004E52465F4552524FD2
:10BA0000525F494E56414C49445F41444452000004
:10BA10004E52465F4552524F525F425553590000B5
:10BA20004E52465F4552524F525F434F4E4E5F4318
:10BA30004F554E54000000004E52465F4552524F43
:10BA4000525F5245534F5552434553004E52465F45
:10BA50004552524F525F4D4F44554C455F4E4F54E7
:10BA60005F494E495449414C495A45440000000041
:10BA70004E52465F4552524F525F4D555445585FA6
:10BA8000494E49545F4641494C4544004E52465F39
:10BA90004552524F525F4D555445585F4C4F434BA2
:10BAA0005F4641494C4544004E52465F4552524F15
:10BAB000525F4D555445585F554E4C4F434B5F4672
:10BAC00041494C45440000004E52465F4552524F9A
:10BAD000525F4D555445585F434F4E445F494E4960
